{
	"contracts/Helloworld.sol": {
		"HelloWorld": {
			"abi": [
				{
					"inputs": [],
					"name": "getGoals",
					"outputs": [
						{
							"internalType": "int256",
							"name": "",
							"type": "int256"
						}
					],
					"stateMutability": "view",
					"type": "function"
				},
				{
					"inputs": [],
					"name": "getMe",
					"outputs": [
						{
							"internalType": "bool",
							"name": "",
							"type": "bool"
						}
					],
					"stateMutability": "view",
					"type": "function"
				},
				{
					"inputs": [],
					"name": "getName",
					"outputs": [
						{
							"internalType": "string",
							"name": "",
							"type": "string"
						}
					],
					"stateMutability": "view",
					"type": "function"
				},
				{
					"inputs": [],
					"name": "getNumber",
					"outputs": [
						{
							"internalType": "uint256",
							"name": "",
							"type": "uint256"
						}
					],
					"stateMutability": "view",
					"type": "function"
				},
				{
					"inputs": [
						{
							"internalType": "int256",
							"name": "_goals",
							"type": "int256"
						}
					],
					"name": "setGoals",
					"outputs": [],
					"stateMutability": "nonpayable",
					"type": "function"
				},
				{
					"inputs": [
						{
							"internalType": "bool",
							"name": "_me",
							"type": "bool"
						}
					],
					"name": "setMe",
					"outputs": [],
					"stateMutability": "nonpayable",
					"type": "function"
				},
				{
					"inputs": [
						{
							"internalType": "string",
							"name": "_name",
							"type": "string"
						}
					],
					"name": "setName",
					"outputs": [],
					"stateMutability": "nonpayable",
					"type": "function"
				},
				{
					"inputs": [
						{
							"internalType": "uint256",
							"name": "_score",
							"type": "uint256"
						}
					],
					"name": "setScore",
					"outputs": [],
					"stateMutability": "nonpayable",
					"type": "function"
				}
			],
			"devdoc": {
				"kind": "dev",
				"methods": {},
				"version": 1
			},
			"evm": {
				"assembly": "    /* \"contracts/Helloworld.sol\":69:812  contract HelloWorld {... */\n  mstore(0x40, 0x80)\n  callvalue\n  dup1\n  iszero\n  tag_1\n  jumpi\n  0x00\n  dup1\n  revert\ntag_1:\n  pop\n  dataSize(sub_0)\n  dup1\n  dataOffset(sub_0)\n  0x00\n  codecopy\n  0x00\n  return\nstop\n\nsub_0: assembly {\n        /* \"contracts/Helloworld.sol\":69:812  contract HelloWorld {... */\n      mstore(0x40, 0x80)\n      callvalue\n      dup1\n      iszero\n      tag_1\n      jumpi\n      0x00\n      dup1\n      revert\n    tag_1:\n      pop\n      jumpi(tag_2, lt(calldatasize, 0x04))\n      shr(0xe0, calldataload(0x00))\n      dup1\n      0x9e656d69\n      gt\n      tag_11\n      jumpi\n      dup1\n      0x9e656d69\n      eq\n      tag_7\n      jumpi\n      dup1\n      0xc11e1ff3\n      eq\n      tag_8\n      jumpi\n      dup1\n      0xc47f0027\n      eq\n      tag_9\n      jumpi\n      dup1\n      0xf2c9ecd8\n      eq\n      tag_10\n      jumpi\n      jump(tag_2)\n    tag_11:\n      dup1\n      0x0d7378aa\n      eq\n      tag_3\n      jumpi\n      dup1\n      0x12c7777f\n      eq\n      tag_4\n      jumpi\n      dup1\n      0x17d7de7c\n      eq\n      tag_5\n      jumpi\n      dup1\n      0x422beeba\n      eq\n      tag_6\n      jumpi\n    tag_2:\n      0x00\n      dup1\n      revert\n        /* \"contracts/Helloworld.sol\":671:732  function setMe(bool  _me ) public {... */\n    tag_3:\n      tag_12\n      0x04\n      dup1\n      calldatasize\n      sub\n      dup2\n      add\n      swap1\n      tag_13\n      swap2\n      swap1\n      tag_14\n      jump\t// in\n    tag_13:\n      tag_15\n      jump\t// in\n    tag_12:\n      stop\n        /* \"contracts/Helloworld.sol\":511:582  function setGoals(int _goals) public {... */\n    tag_4:\n      tag_16\n      0x04\n      dup1\n      calldatasize\n      sub\n      dup2\n      add\n      swap1\n      tag_17\n      swap2\n      swap1\n      tag_18\n      jump\t// in\n    tag_17:\n      tag_19\n      jump\t// in\n    tag_16:\n      stop\n        /* \"contracts/Helloworld.sol\":417:503  function getName() public view returns (string memory) {... */\n    tag_5:\n      tag_20\n      tag_21\n      jump\t// in\n    tag_20:\n      mload(0x40)\n      tag_22\n      swap2\n      swap1\n      tag_23\n      jump\t// in\n    tag_22:\n      mload(0x40)\n      dup1\n      swap2\n      sub\n      swap1\n      return\n        /* \"contracts/Helloworld.sol\":165:238  function setScore(uint _score ) public {... */\n    tag_6:\n      tag_24\n      0x04\n      dup1\n      calldatasize\n      sub\n      dup2\n      add\n      swap1\n      tag_25\n      swap2\n      swap1\n      tag_26\n      jump\t// in\n    tag_25:\n      tag_27\n      jump\t// in\n    tag_24:\n      stop\n        /* \"contracts/Helloworld.sol\":588:665  function getGoals() public view returns (int) {... */\n    tag_7:\n      tag_28\n      tag_29\n      jump\t// in\n    tag_28:\n      mload(0x40)\n      tag_30\n      swap2\n      swap1\n      tag_31\n      jump\t// in\n    tag_30:\n      mload(0x40)\n      dup1\n      swap2\n      sub\n      swap1\n      return\n        /* \"contracts/Helloworld.sol\":738:809  function getMe() public view returns(bool) {... */\n    tag_8:\n      tag_32\n      tag_33\n      jump\t// in\n    tag_32:\n      mload(0x40)\n      tag_34\n      swap2\n      swap1\n      tag_35\n      jump\t// in\n    tag_34:\n      mload(0x40)\n      dup1\n      swap2\n      sub\n      swap1\n      return\n        /* \"contracts/Helloworld.sol\":333:411  function setName(string memory _name) public  {... */\n    tag_9:\n      tag_36\n      0x04\n      dup1\n      calldatasize\n      sub\n      dup2\n      add\n      swap1\n      tag_37\n      swap2\n      swap1\n      tag_38\n      jump\t// in\n    tag_37:\n      tag_39\n      jump\t// in\n    tag_36:\n      stop\n        /* \"contracts/Helloworld.sol\":246:325  function getNumber() public view returns (uint) {... */\n    tag_10:\n      tag_40\n      tag_41\n      jump\t// in\n    tag_40:\n      mload(0x40)\n      tag_42\n      swap2\n      swap1\n      tag_43\n      jump\t// in\n    tag_42:\n      mload(0x40)\n      dup1\n      swap2\n      sub\n      swap1\n      return\n        /* \"contracts/Helloworld.sol\":671:732  function setMe(bool  _me ) public {... */\n    tag_15:\n        /* \"contracts/Helloworld.sol\":721:724  _me */\n      dup1\n        /* \"contracts/Helloworld.sol\":716:718  me */\n      0x01\n      0x00\n        /* \"contracts/Helloworld.sol\":716:724  me = _me */\n      0x0100\n      exp\n      dup2\n      sload\n      dup2\n      0xff\n      mul\n      not\n      and\n      swap1\n      dup4\n      iszero\n      iszero\n      mul\n      or\n      swap1\n      sstore\n      pop\n        /* \"contracts/Helloworld.sol\":671:732  function setMe(bool  _me ) public {... */\n      pop\n      jump\t// out\n        /* \"contracts/Helloworld.sol\":511:582  function setGoals(int _goals) public {... */\n    tag_19:\n        /* \"contracts/Helloworld.sol\":567:573  _goals */\n      dup1\n        /* \"contracts/Helloworld.sol\":559:564  goals */\n      0x02\n        /* \"contracts/Helloworld.sol\":559:573  goals = _goals */\n      dup2\n      swap1\n      sstore\n      pop\n        /* \"contracts/Helloworld.sol\":511:582  function setGoals(int _goals) public {... */\n      pop\n      jump\t// out\n        /* \"contracts/Helloworld.sol\":417:503  function getName() public view returns (string memory) {... */\n    tag_21:\n        /* \"contracts/Helloworld.sol\":457:470  string memory */\n      0x60\n        /* \"contracts/Helloworld.sol\":490:494  name */\n      0x03\n        /* \"contracts/Helloworld.sol\":483:494  return name */\n      dup1\n      sload\n      tag_47\n      swap1\n      tag_48\n      jump\t// in\n    tag_47:\n      dup1\n      0x1f\n      add\n      0x20\n      dup1\n      swap2\n      div\n      mul\n      0x20\n      add\n      mload(0x40)\n      swap1\n      dup2\n      add\n      0x40\n      mstore\n      dup1\n      swap3\n      swap2\n      swap1\n      dup2\n      dup2\n      mstore\n      0x20\n      add\n      dup3\n      dup1\n      sload\n      tag_49\n      swap1\n      tag_48\n      jump\t// in\n    tag_49:\n      dup1\n      iszero\n      tag_50\n      jumpi\n      dup1\n      0x1f\n      lt\n      tag_51\n      jumpi\n      0x0100\n      dup1\n      dup4\n      sload\n      div\n      mul\n      dup4\n      mstore\n      swap2\n      0x20\n      add\n      swap2\n      jump(tag_50)\n    tag_51:\n      dup3\n      add\n      swap2\n      swap1\n      0x00\n      mstore\n      keccak256(0x00, 0x20)\n      swap1\n    tag_52:\n      dup2\n      sload\n      dup2\n      mstore\n      swap1\n      0x01\n      add\n      swap1\n      0x20\n      add\n      dup1\n      dup4\n      gt\n      tag_52\n      jumpi\n      dup3\n      swap1\n      sub\n      0x1f\n      and\n      dup3\n      add\n      swap2\n    tag_50:\n      pop\n      pop\n      pop\n      pop\n      pop\n      swap1\n      pop\n        /* \"contracts/Helloworld.sol\":417:503  function getName() public view returns (string memory) {... */\n      swap1\n      jump\t// out\n        /* \"contracts/Helloworld.sol\":165:238  function setScore(uint _score ) public {... */\n    tag_27:\n        /* \"contracts/Helloworld.sol\":224:230  _score */\n      dup1\n        /* \"contracts/Helloworld.sol\":215:220  score */\n      0x00\n        /* \"contracts/Helloworld.sol\":215:230  score =  _score */\n      dup2\n      swap1\n      sstore\n      pop\n        /* \"contracts/Helloworld.sol\":165:238  function setScore(uint _score ) public {... */\n      pop\n      jump\t// out\n        /* \"contracts/Helloworld.sol\":588:665  function getGoals() public view returns (int) {... */\n    tag_29:\n        /* \"contracts/Helloworld.sol\":629:632  int */\n      0x00\n        /* \"contracts/Helloworld.sol\":652:657  goals */\n      sload(0x02)\n        /* \"contracts/Helloworld.sol\":645:657  return goals */\n      swap1\n      pop\n        /* \"contracts/Helloworld.sol\":588:665  function getGoals() public view returns (int) {... */\n      swap1\n      jump\t// out\n        /* \"contracts/Helloworld.sol\":738:809  function getMe() public view returns(bool) {... */\n    tag_33:\n        /* \"contracts/Helloworld.sol\":775:779  bool */\n      0x00\n        /* \"contracts/Helloworld.sol\":799:801  me */\n      0x01\n      0x00\n      swap1\n      sload\n      swap1\n      0x0100\n      exp\n      swap1\n      div\n      0xff\n      and\n        /* \"contracts/Helloworld.sol\":792:801  return me */\n      swap1\n      pop\n        /* \"contracts/Helloworld.sol\":738:809  function getMe() public view returns(bool) {... */\n      swap1\n      jump\t// out\n        /* \"contracts/Helloworld.sol\":333:411  function setName(string memory _name) public  {... */\n    tag_39:\n        /* \"contracts/Helloworld.sol\":397:402  _name */\n      dup1\n        /* \"contracts/Helloworld.sol\":390:394  name */\n      0x03\n        /* \"contracts/Helloworld.sol\":390:402  name = _name */\n      swap1\n      dup1\n      mload\n      swap1\n      0x20\n      add\n      swap1\n      tag_57\n      swap3\n      swap2\n      swap1\n      tag_58\n      jump\t// in\n    tag_57:\n      pop\n        /* \"contracts/Helloworld.sol\":333:411  function setName(string memory _name) public  {... */\n      pop\n      jump\t// out\n        /* \"contracts/Helloworld.sol\":246:325  function getNumber() public view returns (uint) {... */\n    tag_41:\n        /* \"contracts/Helloworld.sol\":288:292  uint */\n      0x00\n        /* \"contracts/Helloworld.sol\":312:317  score */\n      dup1\n      sload\n        /* \"contracts/Helloworld.sol\":305:317  return score */\n      swap1\n      pop\n        /* \"contracts/Helloworld.sol\":246:325  function getNumber() public view returns (uint) {... */\n      swap1\n      jump\t// out\n    tag_58:\n      dup3\n      dup1\n      sload\n      tag_60\n      swap1\n      tag_48\n      jump\t// in\n    tag_60:\n      swap1\n      0x00\n      mstore\n      keccak256(0x00, 0x20)\n      swap1\n      0x1f\n      add\n      0x20\n      swap1\n      div\n      dup2\n      add\n      swap3\n      dup3\n      tag_62\n      jumpi\n      0x00\n      dup6\n      sstore\n      jump(tag_61)\n    tag_62:\n      dup3\n      0x1f\n      lt\n      tag_63\n      jumpi\n      dup1\n      mload\n      not(0xff)\n      and\n      dup4\n      dup1\n      add\n      or\n      dup6\n      sstore\n      jump(tag_61)\n    tag_63:\n      dup3\n      dup1\n      add\n      0x01\n      add\n      dup6\n      sstore\n      dup3\n      iszero\n      tag_61\n      jumpi\n      swap2\n      dup3\n      add\n    tag_64:\n      dup3\n      dup2\n      gt\n      iszero\n      tag_65\n      jumpi\n      dup3\n      mload\n      dup3\n      sstore\n      swap2\n      0x20\n      add\n      swap2\n      swap1\n      0x01\n      add\n      swap1\n      jump(tag_64)\n    tag_65:\n    tag_61:\n      pop\n      swap1\n      pop\n      tag_66\n      swap2\n      swap1\n      tag_67\n      jump\t// in\n    tag_66:\n      pop\n      swap1\n      jump\t// out\n    tag_67:\n    tag_68:\n      dup1\n      dup3\n      gt\n      iszero\n      tag_69\n      jumpi\n      0x00\n      dup2\n      0x00\n      swap1\n      sstore\n      pop\n      0x01\n      add\n      jump(tag_68)\n    tag_69:\n      pop\n      swap1\n      jump\t// out\n        /* \"#utility.yul\":7:82   */\n    tag_70:\n        /* \"#utility.yul\":40:46   */\n      0x00\n        /* \"#utility.yul\":73:75   */\n      0x40\n        /* \"#utility.yul\":67:76   */\n      mload\n        /* \"#utility.yul\":57:76   */\n      swap1\n      pop\n        /* \"#utility.yul\":7:82   */\n      swap1\n      jump\t// out\n        /* \"#utility.yul\":88:205   */\n    tag_71:\n        /* \"#utility.yul\":197:198   */\n      0x00\n        /* \"#utility.yul\":194:195   */\n      dup1\n        /* \"#utility.yul\":187:199   */\n      revert\n        /* \"#utility.yul\":211:328   */\n    tag_72:\n        /* \"#utility.yul\":320:321   */\n      0x00\n        /* \"#utility.yul\":317:318   */\n      dup1\n        /* \"#utility.yul\":310:322   */\n      revert\n        /* \"#utility.yul\":334:424   */\n    tag_73:\n        /* \"#utility.yul\":368:375   */\n      0x00\n        /* \"#utility.yul\":411:416   */\n      dup2\n        /* \"#utility.yul\":404:417   */\n      iszero\n        /* \"#utility.yul\":397:418   */\n      iszero\n        /* \"#utility.yul\":386:418   */\n      swap1\n      pop\n        /* \"#utility.yul\":334:424   */\n      swap2\n      swap1\n      pop\n      jump\t// out\n        /* \"#utility.yul\":430:546   */\n    tag_74:\n        /* \"#utility.yul\":500:521   */\n      tag_106\n        /* \"#utility.yul\":515:520   */\n      dup2\n        /* \"#utility.yul\":500:521   */\n      tag_73\n      jump\t// in\n    tag_106:\n        /* \"#utility.yul\":493:498   */\n      dup2\n        /* \"#utility.yul\":490:522   */\n      eq\n        /* \"#utility.yul\":480:540   */\n      tag_107\n      jumpi\n        /* \"#utility.yul\":536:537   */\n      0x00\n        /* \"#utility.yul\":533:534   */\n      dup1\n        /* \"#utility.yul\":526:538   */\n      revert\n        /* \"#utility.yul\":480:540   */\n    tag_107:\n        /* \"#utility.yul\":430:546   */\n      pop\n      jump\t// out\n        /* \"#utility.yul\":552:685   */\n    tag_75:\n        /* \"#utility.yul\":595:600   */\n      0x00\n        /* \"#utility.yul\":633:639   */\n      dup2\n        /* \"#utility.yul\":620:640   */\n      calldataload\n        /* \"#utility.yul\":611:640   */\n      swap1\n      pop\n        /* \"#utility.yul\":649:679   */\n      tag_109\n        /* \"#utility.yul\":673:678   */\n      dup2\n        /* \"#utility.yul\":649:679   */\n      tag_74\n      jump\t// in\n    tag_109:\n        /* \"#utility.yul\":552:685   */\n      swap3\n      swap2\n      pop\n      pop\n      jump\t// out\n        /* \"#utility.yul\":691:1014   */\n    tag_14:\n        /* \"#utility.yul\":747:753   */\n      0x00\n        /* \"#utility.yul\":796:798   */\n      0x20\n        /* \"#utility.yul\":784:793   */\n      dup3\n        /* \"#utility.yul\":775:782   */\n      dup5\n        /* \"#utility.yul\":771:794   */\n      sub\n        /* \"#utility.yul\":767:799   */\n      slt\n        /* \"#utility.yul\":764:883   */\n      iszero\n      tag_111\n      jumpi\n        /* \"#utility.yul\":802:881   */\n      tag_112\n      tag_71\n      jump\t// in\n    tag_112:\n        /* \"#utility.yul\":764:883   */\n    tag_111:\n        /* \"#utility.yul\":922:923   */\n      0x00\n        /* \"#utility.yul\":947:997   */\n      tag_113\n        /* \"#utility.yul\":989:996   */\n      dup5\n        /* \"#utility.yul\":980:986   */\n      dup3\n        /* \"#utility.yul\":969:978   */\n      dup6\n        /* \"#utility.yul\":965:987   */\n      add\n        /* \"#utility.yul\":947:997   */\n      tag_75\n      jump\t// in\n    tag_113:\n        /* \"#utility.yul\":937:997   */\n      swap2\n      pop\n        /* \"#utility.yul\":893:1007   */\n      pop\n        /* \"#utility.yul\":691:1014   */\n      swap3\n      swap2\n      pop\n      pop\n      jump\t// out\n        /* \"#utility.yul\":1020:1096   */\n    tag_76:\n        /* \"#utility.yul\":1056:1063   */\n      0x00\n        /* \"#utility.yul\":1085:1090   */\n      dup2\n        /* \"#utility.yul\":1074:1090   */\n      swap1\n      pop\n        /* \"#utility.yul\":1020:1096   */\n      swap2\n      swap1\n      pop\n      jump\t// out\n        /* \"#utility.yul\":1102:1222   */\n    tag_77:\n        /* \"#utility.yul\":1174:1197   */\n      tag_116\n        /* \"#utility.yul\":1191:1196   */\n      dup2\n        /* \"#utility.yul\":1174:1197   */\n      tag_76\n      jump\t// in\n    tag_116:\n        /* \"#utility.yul\":1167:1172   */\n      dup2\n        /* \"#utility.yul\":1164:1198   */\n      eq\n        /* \"#utility.yul\":1154:1216   */\n      tag_117\n      jumpi\n        /* \"#utility.yul\":1212:1213   */\n      0x00\n        /* \"#utility.yul\":1209:1210   */\n      dup1\n        /* \"#utility.yul\":1202:1214   */\n      revert\n        /* \"#utility.yul\":1154:1216   */\n    tag_117:\n        /* \"#utility.yul\":1102:1222   */\n      pop\n      jump\t// out\n        /* \"#utility.yul\":1228:1365   */\n    tag_78:\n        /* \"#utility.yul\":1273:1278   */\n      0x00\n        /* \"#utility.yul\":1311:1317   */\n      dup2\n        /* \"#utility.yul\":1298:1318   */\n      calldataload\n        /* \"#utility.yul\":1289:1318   */\n      swap1\n      pop\n        /* \"#utility.yul\":1327:1359   */\n      tag_119\n        /* \"#utility.yul\":1353:1358   */\n      dup2\n        /* \"#utility.yul\":1327:1359   */\n      tag_77\n      jump\t// in\n    tag_119:\n        /* \"#utility.yul\":1228:1365   */\n      swap3\n      swap2\n      pop\n      pop\n      jump\t// out\n        /* \"#utility.yul\":1371:1698   */\n    tag_18:\n        /* \"#utility.yul\":1429:1435   */\n      0x00\n        /* \"#utility.yul\":1478:1480   */\n      0x20\n        /* \"#utility.yul\":1466:1475   */\n      dup3\n        /* \"#utility.yul\":1457:1464   */\n      dup5\n        /* \"#utility.yul\":1453:1476   */\n      sub\n        /* \"#utility.yul\":1449:1481   */\n      slt\n        /* \"#utility.yul\":1446:1565   */\n      iszero\n      tag_121\n      jumpi\n        /* \"#utility.yul\":1484:1563   */\n      tag_122\n      tag_71\n      jump\t// in\n    tag_122:\n        /* \"#utility.yul\":1446:1565   */\n    tag_121:\n        /* \"#utility.yul\":1604:1605   */\n      0x00\n        /* \"#utility.yul\":1629:1681   */\n      tag_123\n        /* \"#utility.yul\":1673:1680   */\n      dup5\n        /* \"#utility.yul\":1664:1670   */\n      dup3\n        /* \"#utility.yul\":1653:1662   */\n      dup6\n        /* \"#utility.yul\":1649:1671   */\n      add\n        /* \"#utility.yul\":1629:1681   */\n      tag_78\n      jump\t// in\n    tag_123:\n        /* \"#utility.yul\":1619:1681   */\n      swap2\n      pop\n        /* \"#utility.yul\":1575:1691   */\n      pop\n        /* \"#utility.yul\":1371:1698   */\n      swap3\n      swap2\n      pop\n      pop\n      jump\t// out\n        /* \"#utility.yul\":1704:1803   */\n    tag_79:\n        /* \"#utility.yul\":1756:1762   */\n      0x00\n        /* \"#utility.yul\":1790:1795   */\n      dup2\n        /* \"#utility.yul\":1784:1796   */\n      mload\n        /* \"#utility.yul\":1774:1796   */\n      swap1\n      pop\n        /* \"#utility.yul\":1704:1803   */\n      swap2\n      swap1\n      pop\n      jump\t// out\n        /* \"#utility.yul\":1809:1978   */\n    tag_80:\n        /* \"#utility.yul\":1893:1904   */\n      0x00\n        /* \"#utility.yul\":1927:1933   */\n      dup3\n        /* \"#utility.yul\":1922:1925   */\n      dup3\n        /* \"#utility.yul\":1915:1934   */\n      mstore\n        /* \"#utility.yul\":1967:1971   */\n      0x20\n        /* \"#utility.yul\":1962:1965   */\n      dup3\n        /* \"#utility.yul\":1958:1972   */\n      add\n        /* \"#utility.yul\":1943:1972   */\n      swap1\n      pop\n        /* \"#utility.yul\":1809:1978   */\n      swap3\n      swap2\n      pop\n      pop\n      jump\t// out\n        /* \"#utility.yul\":1984:2291   */\n    tag_81:\n        /* \"#utility.yul\":2052:2053   */\n      0x00\n        /* \"#utility.yul\":2062:2175   */\n    tag_127:\n        /* \"#utility.yul\":2076:2082   */\n      dup4\n        /* \"#utility.yul\":2073:2074   */\n      dup2\n        /* \"#utility.yul\":2070:2083   */\n      lt\n        /* \"#utility.yul\":2062:2175   */\n      iszero\n      tag_129\n      jumpi\n        /* \"#utility.yul\":2161:2162   */\n      dup1\n        /* \"#utility.yul\":2156:2159   */\n      dup3\n        /* \"#utility.yul\":2152:2163   */\n      add\n        /* \"#utility.yul\":2146:2164   */\n      mload\n        /* \"#utility.yul\":2142:2143   */\n      dup2\n        /* \"#utility.yul\":2137:2140   */\n      dup5\n        /* \"#utility.yul\":2133:2144   */\n      add\n        /* \"#utility.yul\":2126:2165   */\n      mstore\n        /* \"#utility.yul\":2098:2100   */\n      0x20\n        /* \"#utility.yul\":2095:2096   */\n      dup2\n        /* \"#utility.yul\":2091:2101   */\n      add\n        /* \"#utility.yul\":2086:2101   */\n      swap1\n      pop\n        /* \"#utility.yul\":2062:2175   */\n      jump(tag_127)\n    tag_129:\n        /* \"#utility.yul\":2193:2199   */\n      dup4\n        /* \"#utility.yul\":2190:2191   */\n      dup2\n        /* \"#utility.yul\":2187:2200   */\n      gt\n        /* \"#utility.yul\":2184:2285   */\n      iszero\n      tag_130\n      jumpi\n        /* \"#utility.yul\":2273:2274   */\n      0x00\n        /* \"#utility.yul\":2264:2270   */\n      dup5\n        /* \"#utility.yul\":2259:2262   */\n      dup5\n        /* \"#utility.yul\":2255:2271   */\n      add\n        /* \"#utility.yul\":2248:2275   */\n      mstore\n        /* \"#utility.yul\":2184:2285   */\n    tag_130:\n        /* \"#utility.yul\":2033:2291   */\n      pop\n        /* \"#utility.yul\":1984:2291   */\n      pop\n      pop\n      pop\n      jump\t// out\n        /* \"#utility.yul\":2297:2399   */\n    tag_82:\n        /* \"#utility.yul\":2338:2344   */\n      0x00\n        /* \"#utility.yul\":2389:2391   */\n      0x1f\n        /* \"#utility.yul\":2385:2392   */\n      not\n        /* \"#utility.yul\":2380:2382   */\n      0x1f\n        /* \"#utility.yul\":2373:2378   */\n      dup4\n        /* \"#utility.yul\":2369:2383   */\n      add\n        /* \"#utility.yul\":2365:2393   */\n      and\n        /* \"#utility.yul\":2355:2393   */\n      swap1\n      pop\n        /* \"#utility.yul\":2297:2399   */\n      swap2\n      swap1\n      pop\n      jump\t// out\n        /* \"#utility.yul\":2405:2769   */\n    tag_83:\n        /* \"#utility.yul\":2493:2496   */\n      0x00\n        /* \"#utility.yul\":2521:2560   */\n      tag_133\n        /* \"#utility.yul\":2554:2559   */\n      dup3\n        /* \"#utility.yul\":2521:2560   */\n      tag_79\n      jump\t// in\n    tag_133:\n        /* \"#utility.yul\":2576:2647   */\n      tag_134\n        /* \"#utility.yul\":2640:2646   */\n      dup2\n        /* \"#utility.yul\":2635:2638   */\n      dup6\n        /* \"#utility.yul\":2576:2647   */\n      tag_80\n      jump\t// in\n    tag_134:\n        /* \"#utility.yul\":2569:2647   */\n      swap4\n      pop\n        /* \"#utility.yul\":2656:2708   */\n      tag_135\n        /* \"#utility.yul\":2701:2707   */\n      dup2\n        /* \"#utility.yul\":2696:2699   */\n      dup6\n        /* \"#utility.yul\":2689:2693   */\n      0x20\n        /* \"#utility.yul\":2682:2687   */\n      dup7\n        /* \"#utility.yul\":2678:2694   */\n      add\n        /* \"#utility.yul\":2656:2708   */\n      tag_81\n      jump\t// in\n    tag_135:\n        /* \"#utility.yul\":2733:2762   */\n      tag_136\n        /* \"#utility.yul\":2755:2761   */\n      dup2\n        /* \"#utility.yul\":2733:2762   */\n      tag_82\n      jump\t// in\n    tag_136:\n        /* \"#utility.yul\":2728:2731   */\n      dup5\n        /* \"#utility.yul\":2724:2763   */\n      add\n        /* \"#utility.yul\":2717:2763   */\n      swap2\n      pop\n        /* \"#utility.yul\":2497:2769   */\n      pop\n        /* \"#utility.yul\":2405:2769   */\n      swap3\n      swap2\n      pop\n      pop\n      jump\t// out\n        /* \"#utility.yul\":2775:3088   */\n    tag_23:\n        /* \"#utility.yul\":2888:2892   */\n      0x00\n        /* \"#utility.yul\":2926:2928   */\n      0x20\n        /* \"#utility.yul\":2915:2924   */\n      dup3\n        /* \"#utility.yul\":2911:2929   */\n      add\n        /* \"#utility.yul\":2903:2929   */\n      swap1\n      pop\n        /* \"#utility.yul\":2975:2984   */\n      dup2\n        /* \"#utility.yul\":2969:2973   */\n      dup2\n        /* \"#utility.yul\":2965:2985   */\n      sub\n        /* \"#utility.yul\":2961:2962   */\n      0x00\n        /* \"#utility.yul\":2950:2959   */\n      dup4\n        /* \"#utility.yul\":2946:2963   */\n      add\n        /* \"#utility.yul\":2939:2986   */\n      mstore\n        /* \"#utility.yul\":3003:3081   */\n      tag_138\n        /* \"#utility.yul\":3076:3080   */\n      dup2\n        /* \"#utility.yul\":3067:3073   */\n      dup5\n        /* \"#utility.yul\":3003:3081   */\n      tag_83\n      jump\t// in\n    tag_138:\n        /* \"#utility.yul\":2995:3081   */\n      swap1\n      pop\n        /* \"#utility.yul\":2775:3088   */\n      swap3\n      swap2\n      pop\n      pop\n      jump\t// out\n        /* \"#utility.yul\":3094:3171   */\n    tag_84:\n        /* \"#utility.yul\":3131:3138   */\n      0x00\n        /* \"#utility.yul\":3160:3165   */\n      dup2\n        /* \"#utility.yul\":3149:3165   */\n      swap1\n      pop\n        /* \"#utility.yul\":3094:3171   */\n      swap2\n      swap1\n      pop\n      jump\t// out\n        /* \"#utility.yul\":3177:3299   */\n    tag_85:\n        /* \"#utility.yul\":3250:3274   */\n      tag_141\n        /* \"#utility.yul\":3268:3273   */\n      dup2\n        /* \"#utility.yul\":3250:3274   */\n      tag_84\n      jump\t// in\n    tag_141:\n        /* \"#utility.yul\":3243:3248   */\n      dup2\n        /* \"#utility.yul\":3240:3275   */\n      eq\n        /* \"#utility.yul\":3230:3293   */\n      tag_142\n      jumpi\n        /* \"#utility.yul\":3289:3290   */\n      0x00\n        /* \"#utility.yul\":3286:3287   */\n      dup1\n        /* \"#utility.yul\":3279:3291   */\n      revert\n        /* \"#utility.yul\":3230:3293   */\n    tag_142:\n        /* \"#utility.yul\":3177:3299   */\n      pop\n      jump\t// out\n        /* \"#utility.yul\":3305:3444   */\n    tag_86:\n        /* \"#utility.yul\":3351:3356   */\n      0x00\n        /* \"#utility.yul\":3389:3395   */\n      dup2\n        /* \"#utility.yul\":3376:3396   */\n      calldataload\n        /* \"#utility.yul\":3367:3396   */\n      swap1\n      pop\n        /* \"#utility.yul\":3405:3438   */\n      tag_144\n        /* \"#utility.yul\":3432:3437   */\n      dup2\n        /* \"#utility.yul\":3405:3438   */\n      tag_85\n      jump\t// in\n    tag_144:\n        /* \"#utility.yul\":3305:3444   */\n      swap3\n      swap2\n      pop\n      pop\n      jump\t// out\n        /* \"#utility.yul\":3450:3779   */\n    tag_26:\n        /* \"#utility.yul\":3509:3515   */\n      0x00\n        /* \"#utility.yul\":3558:3560   */\n      0x20\n        /* \"#utility.yul\":3546:3555   */\n      dup3\n        /* \"#utility.yul\":3537:3544   */\n      dup5\n        /* \"#utility.yul\":3533:3556   */\n      sub\n        /* \"#utility.yul\":3529:3561   */\n      slt\n        /* \"#utility.yul\":3526:3645   */\n      iszero\n      tag_146\n      jumpi\n        /* \"#utility.yul\":3564:3643   */\n      tag_147\n      tag_71\n      jump\t// in\n    tag_147:\n        /* \"#utility.yul\":3526:3645   */\n    tag_146:\n        /* \"#utility.yul\":3684:3685   */\n      0x00\n        /* \"#utility.yul\":3709:3762   */\n      tag_148\n        /* \"#utility.yul\":3754:3761   */\n      dup5\n        /* \"#utility.yul\":3745:3751   */\n      dup3\n        /* \"#utility.yul\":3734:3743   */\n      dup6\n        /* \"#utility.yul\":3730:3752   */\n      add\n        /* \"#utility.yul\":3709:3762   */\n      tag_86\n      jump\t// in\n    tag_148:\n        /* \"#utility.yul\":3699:3762   */\n      swap2\n      pop\n        /* \"#utility.yul\":3655:3772   */\n      pop\n        /* \"#utility.yul\":3450:3779   */\n      swap3\n      swap2\n      pop\n      pop\n      jump\t// out\n        /* \"#utility.yul\":3785:3900   */\n    tag_87:\n        /* \"#utility.yul\":3870:3893   */\n      tag_150\n        /* \"#utility.yul\":3887:3892   */\n      dup2\n        /* \"#utility.yul\":3870:3893   */\n      tag_76\n      jump\t// in\n    tag_150:\n        /* \"#utility.yul\":3865:3868   */\n      dup3\n        /* \"#utility.yul\":3858:3894   */\n      mstore\n        /* \"#utility.yul\":3785:3900   */\n      pop\n      pop\n      jump\t// out\n        /* \"#utility.yul\":3906:4124   */\n    tag_31:\n        /* \"#utility.yul\":3997:4001   */\n      0x00\n        /* \"#utility.yul\":4035:4037   */\n      0x20\n        /* \"#utility.yul\":4024:4033   */\n      dup3\n        /* \"#utility.yul\":4020:4038   */\n      add\n        /* \"#utility.yul\":4012:4038   */\n      swap1\n      pop\n        /* \"#utility.yul\":4048:4117   */\n      tag_152\n        /* \"#utility.yul\":4114:4115   */\n      0x00\n        /* \"#utility.yul\":4103:4112   */\n      dup4\n        /* \"#utility.yul\":4099:4116   */\n      add\n        /* \"#utility.yul\":4090:4096   */\n      dup5\n        /* \"#utility.yul\":4048:4117   */\n      tag_87\n      jump\t// in\n    tag_152:\n        /* \"#utility.yul\":3906:4124   */\n      swap3\n      swap2\n      pop\n      pop\n      jump\t// out\n        /* \"#utility.yul\":4130:4239   */\n    tag_88:\n        /* \"#utility.yul\":4211:4232   */\n      tag_154\n        /* \"#utility.yul\":4226:4231   */\n      dup2\n        /* \"#utility.yul\":4211:4232   */\n      tag_73\n      jump\t// in\n    tag_154:\n        /* \"#utility.yul\":4206:4209   */\n      dup3\n        /* \"#utility.yul\":4199:4233   */\n      mstore\n        /* \"#utility.yul\":4130:4239   */\n      pop\n      pop\n      jump\t// out\n        /* \"#utility.yul\":4245:4455   */\n    tag_35:\n        /* \"#utility.yul\":4332:4336   */\n      0x00\n        /* \"#utility.yul\":4370:4372   */\n      0x20\n        /* \"#utility.yul\":4359:4368   */\n      dup3\n        /* \"#utility.yul\":4355:4373   */\n      add\n        /* \"#utility.yul\":4347:4373   */\n      swap1\n      pop\n        /* \"#utility.yul\":4383:4448   */\n      tag_156\n        /* \"#utility.yul\":4445:4446   */\n      0x00\n        /* \"#utility.yul\":4434:4443   */\n      dup4\n        /* \"#utility.yul\":4430:4447   */\n      add\n        /* \"#utility.yul\":4421:4427   */\n      dup5\n        /* \"#utility.yul\":4383:4448   */\n      tag_88\n      jump\t// in\n    tag_156:\n        /* \"#utility.yul\":4245:4455   */\n      swap3\n      swap2\n      pop\n      pop\n      jump\t// out\n        /* \"#utility.yul\":4461:4578   */\n    tag_89:\n        /* \"#utility.yul\":4570:4571   */\n      0x00\n        /* \"#utility.yul\":4567:4568   */\n      dup1\n        /* \"#utility.yul\":4560:4572   */\n      revert\n        /* \"#utility.yul\":4584:4701   */\n    tag_90:\n        /* \"#utility.yul\":4693:4694   */\n      0x00\n        /* \"#utility.yul\":4690:4691   */\n      dup1\n        /* \"#utility.yul\":4683:4695   */\n      revert\n        /* \"#utility.yul\":4707:4887   */\n    tag_91:\n        /* \"#utility.yul\":4755:4832   */\n      0x4e487b7100000000000000000000000000000000000000000000000000000000\n        /* \"#utility.yul\":4752:4753   */\n      0x00\n        /* \"#utility.yul\":4745:4833   */\n      mstore\n        /* \"#utility.yul\":4852:4856   */\n      0x41\n        /* \"#utility.yul\":4849:4850   */\n      0x04\n        /* \"#utility.yul\":4842:4857   */\n      mstore\n        /* \"#utility.yul\":4876:4880   */\n      0x24\n        /* \"#utility.yul\":4873:4874   */\n      0x00\n        /* \"#utility.yul\":4866:4881   */\n      revert\n        /* \"#utility.yul\":4893:5174   */\n    tag_92:\n        /* \"#utility.yul\":4976:5003   */\n      tag_161\n        /* \"#utility.yul\":4998:5002   */\n      dup3\n        /* \"#utility.yul\":4976:5003   */\n      tag_82\n      jump\t// in\n    tag_161:\n        /* \"#utility.yul\":4968:4974   */\n      dup2\n        /* \"#utility.yul\":4964:5004   */\n      add\n        /* \"#utility.yul\":5106:5112   */\n      dup2\n        /* \"#utility.yul\":5094:5104   */\n      dup2\n        /* \"#utility.yul\":5091:5113   */\n      lt\n        /* \"#utility.yul\":5070:5088   */\n      0xffffffffffffffff\n        /* \"#utility.yul\":5058:5068   */\n      dup3\n        /* \"#utility.yul\":5055:5089   */\n      gt\n        /* \"#utility.yul\":5052:5114   */\n      or\n        /* \"#utility.yul\":5049:5137   */\n      iszero\n      tag_162\n      jumpi\n        /* \"#utility.yul\":5117:5135   */\n      tag_163\n      tag_91\n      jump\t// in\n    tag_163:\n        /* \"#utility.yul\":5049:5137   */\n    tag_162:\n        /* \"#utility.yul\":5157:5167   */\n      dup1\n        /* \"#utility.yul\":5153:5155   */\n      0x40\n        /* \"#utility.yul\":5146:5168   */\n      mstore\n        /* \"#utility.yul\":4936:5174   */\n      pop\n        /* \"#utility.yul\":4893:5174   */\n      pop\n      pop\n      jump\t// out\n        /* \"#utility.yul\":5180:5309   */\n    tag_93:\n        /* \"#utility.yul\":5214:5220   */\n      0x00\n        /* \"#utility.yul\":5241:5261   */\n      tag_165\n      tag_70\n      jump\t// in\n    tag_165:\n        /* \"#utility.yul\":5231:5261   */\n      swap1\n      pop\n        /* \"#utility.yul\":5270:5303   */\n      tag_166\n        /* \"#utility.yul\":5298:5302   */\n      dup3\n        /* \"#utility.yul\":5290:5296   */\n      dup3\n        /* \"#utility.yul\":5270:5303   */\n      tag_92\n      jump\t// in\n    tag_166:\n        /* \"#utility.yul\":5180:5309   */\n      swap2\n      swap1\n      pop\n      jump\t// out\n        /* \"#utility.yul\":5315:5623   */\n    tag_94:\n        /* \"#utility.yul\":5377:5381   */\n      0x00\n        /* \"#utility.yul\":5467:5485   */\n      0xffffffffffffffff\n        /* \"#utility.yul\":5459:5465   */\n      dup3\n        /* \"#utility.yul\":5456:5486   */\n      gt\n        /* \"#utility.yul\":5453:5509   */\n      iszero\n      tag_168\n      jumpi\n        /* \"#utility.yul\":5489:5507   */\n      tag_169\n      tag_91\n      jump\t// in\n    tag_169:\n        /* \"#utility.yul\":5453:5509   */\n    tag_168:\n        /* \"#utility.yul\":5527:5556   */\n      tag_170\n        /* \"#utility.yul\":5549:5555   */\n      dup3\n        /* \"#utility.yul\":5527:5556   */\n      tag_82\n      jump\t// in\n    tag_170:\n        /* \"#utility.yul\":5519:5556   */\n      swap1\n      pop\n        /* \"#utility.yul\":5611:5615   */\n      0x20\n        /* \"#utility.yul\":5605:5609   */\n      dup2\n        /* \"#utility.yul\":5601:5616   */\n      add\n        /* \"#utility.yul\":5593:5616   */\n      swap1\n      pop\n        /* \"#utility.yul\":5315:5623   */\n      swap2\n      swap1\n      pop\n      jump\t// out\n        /* \"#utility.yul\":5629:5783   */\n    tag_95:\n        /* \"#utility.yul\":5713:5719   */\n      dup3\n        /* \"#utility.yul\":5708:5711   */\n      dup2\n        /* \"#utility.yul\":5703:5706   */\n      dup4\n        /* \"#utility.yul\":5690:5720   */\n      calldatacopy\n        /* \"#utility.yul\":5775:5776   */\n      0x00\n        /* \"#utility.yul\":5766:5772   */\n      dup4\n        /* \"#utility.yul\":5761:5764   */\n      dup4\n        /* \"#utility.yul\":5757:5773   */\n      add\n        /* \"#utility.yul\":5750:5777   */\n      mstore\n        /* \"#utility.yul\":5629:5783   */\n      pop\n      pop\n      pop\n      jump\t// out\n        /* \"#utility.yul\":5789:6201   */\n    tag_96:\n        /* \"#utility.yul\":5867:5872   */\n      0x00\n        /* \"#utility.yul\":5892:5958   */\n      tag_173\n        /* \"#utility.yul\":5908:5957   */\n      tag_174\n        /* \"#utility.yul\":5950:5956   */\n      dup5\n        /* \"#utility.yul\":5908:5957   */\n      tag_94\n      jump\t// in\n    tag_174:\n        /* \"#utility.yul\":5892:5958   */\n      tag_93\n      jump\t// in\n    tag_173:\n        /* \"#utility.yul\":5883:5958   */\n      swap1\n      pop\n        /* \"#utility.yul\":5981:5987   */\n      dup3\n        /* \"#utility.yul\":5974:5979   */\n      dup2\n        /* \"#utility.yul\":5967:5988   */\n      mstore\n        /* \"#utility.yul\":6019:6023   */\n      0x20\n        /* \"#utility.yul\":6012:6017   */\n      dup2\n        /* \"#utility.yul\":6008:6024   */\n      add\n        /* \"#utility.yul\":6057:6060   */\n      dup5\n        /* \"#utility.yul\":6048:6054   */\n      dup5\n        /* \"#utility.yul\":6043:6046   */\n      dup5\n        /* \"#utility.yul\":6039:6055   */\n      add\n        /* \"#utility.yul\":6036:6061   */\n      gt\n        /* \"#utility.yul\":6033:6145   */\n      iszero\n      tag_175\n      jumpi\n        /* \"#utility.yul\":6064:6143   */\n      tag_176\n      tag_90\n      jump\t// in\n    tag_176:\n        /* \"#utility.yul\":6033:6145   */\n    tag_175:\n        /* \"#utility.yul\":6154:6195   */\n      tag_177\n        /* \"#utility.yul\":6188:6194   */\n      dup5\n        /* \"#utility.yul\":6183:6186   */\n      dup3\n        /* \"#utility.yul\":6178:6181   */\n      dup6\n        /* \"#utility.yul\":6154:6195   */\n      tag_95\n      jump\t// in\n    tag_177:\n        /* \"#utility.yul\":5873:6201   */\n      pop\n        /* \"#utility.yul\":5789:6201   */\n      swap4\n      swap3\n      pop\n      pop\n      pop\n      jump\t// out\n        /* \"#utility.yul\":6221:6561   */\n    tag_97:\n        /* \"#utility.yul\":6277:6282   */\n      0x00\n        /* \"#utility.yul\":6326:6329   */\n      dup3\n        /* \"#utility.yul\":6319:6323   */\n      0x1f\n        /* \"#utility.yul\":6311:6317   */\n      dup4\n        /* \"#utility.yul\":6307:6324   */\n      add\n        /* \"#utility.yul\":6303:6330   */\n      slt\n        /* \"#utility.yul\":6293:6415   */\n      tag_179\n      jumpi\n        /* \"#utility.yul\":6334:6413   */\n      tag_180\n      tag_89\n      jump\t// in\n    tag_180:\n        /* \"#utility.yul\":6293:6415   */\n    tag_179:\n        /* \"#utility.yul\":6451:6457   */\n      dup2\n        /* \"#utility.yul\":6438:6458   */\n      calldataload\n        /* \"#utility.yul\":6476:6555   */\n      tag_181\n        /* \"#utility.yul\":6551:6554   */\n      dup5\n        /* \"#utility.yul\":6543:6549   */\n      dup3\n        /* \"#utility.yul\":6536:6540   */\n      0x20\n        /* \"#utility.yul\":6528:6534   */\n      dup7\n        /* \"#utility.yul\":6524:6541   */\n      add\n        /* \"#utility.yul\":6476:6555   */\n      tag_96\n      jump\t// in\n    tag_181:\n        /* \"#utility.yul\":6467:6555   */\n      swap2\n      pop\n        /* \"#utility.yul\":6283:6561   */\n      pop\n        /* \"#utility.yul\":6221:6561   */\n      swap3\n      swap2\n      pop\n      pop\n      jump\t// out\n        /* \"#utility.yul\":6567:7076   */\n    tag_38:\n        /* \"#utility.yul\":6636:6642   */\n      0x00\n        /* \"#utility.yul\":6685:6687   */\n      0x20\n        /* \"#utility.yul\":6673:6682   */\n      dup3\n        /* \"#utility.yul\":6664:6671   */\n      dup5\n        /* \"#utility.yul\":6660:6683   */\n      sub\n        /* \"#utility.yul\":6656:6688   */\n      slt\n        /* \"#utility.yul\":6653:6772   */\n      iszero\n      tag_183\n      jumpi\n        /* \"#utility.yul\":6691:6770   */\n      tag_184\n      tag_71\n      jump\t// in\n    tag_184:\n        /* \"#utility.yul\":6653:6772   */\n    tag_183:\n        /* \"#utility.yul\":6839:6840   */\n      0x00\n        /* \"#utility.yul\":6828:6837   */\n      dup3\n        /* \"#utility.yul\":6824:6841   */\n      add\n        /* \"#utility.yul\":6811:6842   */\n      calldataload\n        /* \"#utility.yul\":6869:6887   */\n      0xffffffffffffffff\n        /* \"#utility.yul\":6861:6867   */\n      dup2\n        /* \"#utility.yul\":6858:6888   */\n      gt\n        /* \"#utility.yul\":6855:6972   */\n      iszero\n      tag_185\n      jumpi\n        /* \"#utility.yul\":6891:6970   */\n      tag_186\n      tag_72\n      jump\t// in\n    tag_186:\n        /* \"#utility.yul\":6855:6972   */\n    tag_185:\n        /* \"#utility.yul\":6996:7059   */\n      tag_187\n        /* \"#utility.yul\":7051:7058   */\n      dup5\n        /* \"#utility.yul\":7042:7048   */\n      dup3\n        /* \"#utility.yul\":7031:7040   */\n      dup6\n        /* \"#utility.yul\":7027:7049   */\n      add\n        /* \"#utility.yul\":6996:7059   */\n      tag_97\n      jump\t// in\n    tag_187:\n        /* \"#utility.yul\":6986:7059   */\n      swap2\n      pop\n        /* \"#utility.yul\":6782:7069   */\n      pop\n        /* \"#utility.yul\":6567:7076   */\n      swap3\n      swap2\n      pop\n      pop\n      jump\t// out\n        /* \"#utility.yul\":7082:7200   */\n    tag_98:\n        /* \"#utility.yul\":7169:7193   */\n      tag_189\n        /* \"#utility.yul\":7187:7192   */\n      dup2\n        /* \"#utility.yul\":7169:7193   */\n      tag_84\n      jump\t// in\n    tag_189:\n        /* \"#utility.yul\":7164:7167   */\n      dup3\n        /* \"#utility.yul\":7157:7194   */\n      mstore\n        /* \"#utility.yul\":7082:7200   */\n      pop\n      pop\n      jump\t// out\n        /* \"#utility.yul\":7206:7428   */\n    tag_43:\n        /* \"#utility.yul\":7299:7303   */\n      0x00\n        /* \"#utility.yul\":7337:7339   */\n      0x20\n        /* \"#utility.yul\":7326:7335   */\n      dup3\n        /* \"#utility.yul\":7322:7340   */\n      add\n        /* \"#utility.yul\":7314:7340   */\n      swap1\n      pop\n        /* \"#utility.yul\":7350:7421   */\n      tag_191\n        /* \"#utility.yul\":7418:7419   */\n      0x00\n        /* \"#utility.yul\":7407:7416   */\n      dup4\n        /* \"#utility.yul\":7403:7420   */\n      add\n        /* \"#utility.yul\":7394:7400   */\n      dup5\n        /* \"#utility.yul\":7350:7421   */\n      tag_98\n      jump\t// in\n    tag_191:\n        /* \"#utility.yul\":7206:7428   */\n      swap3\n      swap2\n      pop\n      pop\n      jump\t// out\n        /* \"#utility.yul\":7434:7614   */\n    tag_99:\n        /* \"#utility.yul\":7482:7559   */\n      0x4e487b7100000000000000000000000000000000000000000000000000000000\n        /* \"#utility.yul\":7479:7480   */\n      0x00\n        /* \"#utility.yul\":7472:7560   */\n      mstore\n        /* \"#utility.yul\":7579:7583   */\n      0x22\n        /* \"#utility.yul\":7576:7577   */\n      0x04\n        /* \"#utility.yul\":7569:7584   */\n      mstore\n        /* \"#utility.yul\":7603:7607   */\n      0x24\n        /* \"#utility.yul\":7600:7601   */\n      0x00\n        /* \"#utility.yul\":7593:7608   */\n      revert\n        /* \"#utility.yul\":7620:7940   */\n    tag_48:\n        /* \"#utility.yul\":7664:7670   */\n      0x00\n        /* \"#utility.yul\":7701:7702   */\n      0x02\n        /* \"#utility.yul\":7695:7699   */\n      dup3\n        /* \"#utility.yul\":7691:7703   */\n      div\n        /* \"#utility.yul\":7681:7703   */\n      swap1\n      pop\n        /* \"#utility.yul\":7748:7749   */\n      0x01\n        /* \"#utility.yul\":7742:7746   */\n      dup3\n        /* \"#utility.yul\":7738:7750   */\n      and\n        /* \"#utility.yul\":7769:7787   */\n      dup1\n        /* \"#utility.yul\":7759:7840   */\n      tag_194\n      jumpi\n        /* \"#utility.yul\":7825:7829   */\n      0x7f\n        /* \"#utility.yul\":7817:7823   */\n      dup3\n        /* \"#utility.yul\":7813:7830   */\n      and\n        /* \"#utility.yul\":7803:7830   */\n      swap2\n      pop\n        /* \"#utility.yul\":7759:7840   */\n    tag_194:\n        /* \"#utility.yul\":7887:7889   */\n      0x20\n        /* \"#utility.yul\":7879:7885   */\n      dup3\n        /* \"#utility.yul\":7876:7890   */\n      lt\n        /* \"#utility.yul\":7856:7874   */\n      dup2\n        /* \"#utility.yul\":7853:7891   */\n      eq\n        /* \"#utility.yul\":7850:7934   */\n      iszero\n      tag_195\n      jumpi\n        /* \"#utility.yul\":7906:7924   */\n      tag_196\n      tag_99\n      jump\t// in\n    tag_196:\n        /* \"#utility.yul\":7850:7934   */\n    tag_195:\n        /* \"#utility.yul\":7671:7940   */\n      pop\n        /* \"#utility.yul\":7620:7940   */\n      swap2\n      swap1\n      pop\n      jump\t// out\n\n    auxdata: 0xa2646970667358221220e9a3b3e29b3d7e6e49fc0b963b5ff6979a8a46941b74c98c2e94ac6416caec8f64736f6c63430008090033\n}\n",
				"bytecode": {
					"linkReferences": {},
					"object": "608060405234801561001057600080fd5b506107ac806100206000396000f3fe608060405234801561001057600080fd5b50600436106100885760003560e01c80639e656d691161005b5780639e656d69146100ff578063c11e1ff31461011d578063c47f00271461013b578063f2c9ecd81461015757610088565b80630d7378aa1461008d57806312c7777f146100a957806317d7de7c146100c5578063422beeba146100e3575b600080fd5b6100a760048036038101906100a2919061036b565b610175565b005b6100c360048036038101906100be91906103ce565b610192565b005b6100cd61019c565b6040516100da9190610494565b60405180910390f35b6100fd60048036038101906100f891906104ec565b61022e565b005b610107610238565b6040516101149190610528565b60405180910390f35b610125610242565b6040516101329190610552565b60405180910390f35b610155600480360381019061015091906106a2565b610259565b005b61015f610273565b60405161016c91906106fa565b60405180910390f35b80600160006101000a81548160ff02191690831515021790555050565b8060028190555050565b6060600380546101ab90610744565b80601f01602080910402602001604051908101604052809291908181526020018280546101d790610744565b80156102245780601f106101f957610100808354040283529160200191610224565b820191906000526020600020905b81548152906001019060200180831161020757829003601f168201915b5050505050905090565b8060008190555050565b6000600254905090565b6000600160009054906101000a900460ff16905090565b806003908051906020019061026f92919061027c565b5050565b60008054905090565b82805461028890610744565b90600052602060002090601f0160209004810192826102aa57600085556102f1565b82601f106102c357805160ff19168380011785556102f1565b828001600101855582156102f1579182015b828111156102f05782518255916020019190600101906102d5565b5b5090506102fe9190610302565b5090565b5b8082111561031b576000816000905550600101610303565b5090565b6000604051905090565b600080fd5b600080fd5b60008115159050919050565b61034881610333565b811461035357600080fd5b50565b6000813590506103658161033f565b92915050565b60006020828403121561038157610380610329565b5b600061038f84828501610356565b91505092915050565b6000819050919050565b6103ab81610398565b81146103b657600080fd5b50565b6000813590506103c8816103a2565b92915050565b6000602082840312156103e4576103e3610329565b5b60006103f2848285016103b9565b91505092915050565b600081519050919050565b600082825260208201905092915050565b60005b8381101561043557808201518184015260208101905061041a565b83811115610444576000848401525b50505050565b6000601f19601f8301169050919050565b6000610466826103fb565b6104708185610406565b9350610480818560208601610417565b6104898161044a565b840191505092915050565b600060208201905081810360008301526104ae818461045b565b905092915050565b6000819050919050565b6104c9816104b6565b81146104d457600080fd5b50565b6000813590506104e6816104c0565b92915050565b60006020828403121561050257610501610329565b5b6000610510848285016104d7565b91505092915050565b61052281610398565b82525050565b600060208201905061053d6000830184610519565b92915050565b61054c81610333565b82525050565b60006020820190506105676000830184610543565b92915050565b600080fd5b600080fd5b7f4e487b7100000000000000000000000000000000000000000000000000000000600052604160045260246000fd5b6105af8261044a565b810181811067ffffffffffffffff821117156105ce576105cd610577565b5b80604052505050565b60006105e161031f565b90506105ed82826105a6565b919050565b600067ffffffffffffffff82111561060d5761060c610577565b5b6106168261044a565b9050602081019050919050565b82818337600083830152505050565b6000610645610640846105f2565b6105d7565b90508281526020810184848401111561066157610660610572565b5b61066c848285610623565b509392505050565b600082601f8301126106895761068861056d565b5b8135610699848260208601610632565b91505092915050565b6000602082840312156106b8576106b7610329565b5b600082013567ffffffffffffffff8111156106d6576106d561032e565b5b6106e284828501610674565b91505092915050565b6106f4816104b6565b82525050565b600060208201905061070f60008301846106eb565b92915050565b7f4e487b7100000000000000000000000000000000000000000000000000000000600052602260045260246000fd5b6000600282049050600182168061075c57607f821691505b602082108114156107705761076f610715565b5b5091905056fea2646970667358221220e9a3b3e29b3d7e6e49fc0b963b5ff6979a8a46941b74c98c2e94ac6416caec8f64736f6c63430008090033",
					"opcodes": "PUSH1 0x80 PUSH1 0x40 MSTORE CALLVALUE DUP1 ISZERO PUSH2 0x10 JUMPI PUSH1 0x0 DUP1 REVERT JUMPDEST POP PUSH2 0x7AC DUP1 PUSH2 0x20 PUSH1 0x0 CODECOPY PUSH1 0x0 RETURN INVALID PUSH1 0x80 PUSH1 0x40 MSTORE CALLVALUE DUP1 ISZERO PUSH2 0x10 JUMPI PUSH1 0x0 DUP1 REVERT JUMPDEST POP PUSH1 0x4 CALLDATASIZE LT PUSH2 0x88 JUMPI PUSH1 0x0 CALLDATALOAD PUSH1 0xE0 SHR DUP1 PUSH4 0x9E656D69 GT PUSH2 0x5B JUMPI DUP1 PUSH4 0x9E656D69 EQ PUSH2 0xFF JUMPI DUP1 PUSH4 0xC11E1FF3 EQ PUSH2 0x11D JUMPI DUP1 PUSH4 0xC47F0027 EQ PUSH2 0x13B JUMPI DUP1 PUSH4 0xF2C9ECD8 EQ PUSH2 0x157 JUMPI PUSH2 0x88 JUMP JUMPDEST DUP1 PUSH4 0xD7378AA EQ PUSH2 0x8D JUMPI DUP1 PUSH4 0x12C7777F EQ PUSH2 0xA9 JUMPI DUP1 PUSH4 0x17D7DE7C EQ PUSH2 0xC5 JUMPI DUP1 PUSH4 0x422BEEBA EQ PUSH2 0xE3 JUMPI JUMPDEST PUSH1 0x0 DUP1 REVERT JUMPDEST PUSH2 0xA7 PUSH1 0x4 DUP1 CALLDATASIZE SUB DUP2 ADD SWAP1 PUSH2 0xA2 SWAP2 SWAP1 PUSH2 0x36B JUMP JUMPDEST PUSH2 0x175 JUMP JUMPDEST STOP JUMPDEST PUSH2 0xC3 PUSH1 0x4 DUP1 CALLDATASIZE SUB DUP2 ADD SWAP1 PUSH2 0xBE SWAP2 SWAP1 PUSH2 0x3CE JUMP JUMPDEST PUSH2 0x192 JUMP JUMPDEST STOP JUMPDEST PUSH2 0xCD PUSH2 0x19C JUMP JUMPDEST PUSH1 0x40 MLOAD PUSH2 0xDA SWAP2 SWAP1 PUSH2 0x494 JUMP JUMPDEST PUSH1 0x40 MLOAD DUP1 SWAP2 SUB SWAP1 RETURN JUMPDEST PUSH2 0xFD PUSH1 0x4 DUP1 CALLDATASIZE SUB DUP2 ADD SWAP1 PUSH2 0xF8 SWAP2 SWAP1 PUSH2 0x4EC JUMP JUMPDEST PUSH2 0x22E JUMP JUMPDEST STOP JUMPDEST PUSH2 0x107 PUSH2 0x238 JUMP JUMPDEST PUSH1 0x40 MLOAD PUSH2 0x114 SWAP2 SWAP1 PUSH2 0x528 JUMP JUMPDEST PUSH1 0x40 MLOAD DUP1 SWAP2 SUB SWAP1 RETURN JUMPDEST PUSH2 0x125 PUSH2 0x242 JUMP JUMPDEST PUSH1 0x40 MLOAD PUSH2 0x132 SWAP2 SWAP1 PUSH2 0x552 JUMP JUMPDEST PUSH1 0x40 MLOAD DUP1 SWAP2 SUB SWAP1 RETURN JUMPDEST PUSH2 0x155 PUSH1 0x4 DUP1 CALLDATASIZE SUB DUP2 ADD SWAP1 PUSH2 0x150 SWAP2 SWAP1 PUSH2 0x6A2 JUMP JUMPDEST PUSH2 0x259 JUMP JUMPDEST STOP JUMPDEST PUSH2 0x15F PUSH2 0x273 JUMP JUMPDEST PUSH1 0x40 MLOAD PUSH2 0x16C SWAP2 SWAP1 PUSH2 0x6FA JUMP JUMPDEST PUSH1 0x40 MLOAD DUP1 SWAP2 SUB SWAP1 RETURN JUMPDEST DUP1 PUSH1 0x1 PUSH1 0x0 PUSH2 0x100 EXP DUP2 SLOAD DUP2 PUSH1 0xFF MUL NOT AND SWAP1 DUP4 ISZERO ISZERO MUL OR SWAP1 SSTORE POP POP JUMP JUMPDEST DUP1 PUSH1 0x2 DUP2 SWAP1 SSTORE POP POP JUMP JUMPDEST PUSH1 0x60 PUSH1 0x3 DUP1 SLOAD PUSH2 0x1AB SWAP1 PUSH2 0x744 JUMP JUMPDEST DUP1 PUSH1 0x1F ADD PUSH1 0x20 DUP1 SWAP2 DIV MUL PUSH1 0x20 ADD PUSH1 0x40 MLOAD SWAP1 DUP2 ADD PUSH1 0x40 MSTORE DUP1 SWAP3 SWAP2 SWAP1 DUP2 DUP2 MSTORE PUSH1 0x20 ADD DUP3 DUP1 SLOAD PUSH2 0x1D7 SWAP1 PUSH2 0x744 JUMP JUMPDEST DUP1 ISZERO PUSH2 0x224 JUMPI DUP1 PUSH1 0x1F LT PUSH2 0x1F9 JUMPI PUSH2 0x100 DUP1 DUP4 SLOAD DIV MUL DUP4 MSTORE SWAP2 PUSH1 0x20 ADD SWAP2 PUSH2 0x224 JUMP JUMPDEST DUP3 ADD SWAP2 SWAP1 PUSH1 0x0 MSTORE PUSH1 0x20 PUSH1 0x0 KECCAK256 SWAP1 JUMPDEST DUP2 SLOAD DUP2 MSTORE SWAP1 PUSH1 0x1 ADD SWAP1 PUSH1 0x20 ADD DUP1 DUP4 GT PUSH2 0x207 JUMPI DUP3 SWAP1 SUB PUSH1 0x1F AND DUP3 ADD SWAP2 JUMPDEST POP POP POP POP POP SWAP1 POP SWAP1 JUMP JUMPDEST DUP1 PUSH1 0x0 DUP2 SWAP1 SSTORE POP POP JUMP JUMPDEST PUSH1 0x0 PUSH1 0x2 SLOAD SWAP1 POP SWAP1 JUMP JUMPDEST PUSH1 0x0 PUSH1 0x1 PUSH1 0x0 SWAP1 SLOAD SWAP1 PUSH2 0x100 EXP SWAP1 DIV PUSH1 0xFF AND SWAP1 POP SWAP1 JUMP JUMPDEST DUP1 PUSH1 0x3 SWAP1 DUP1 MLOAD SWAP1 PUSH1 0x20 ADD SWAP1 PUSH2 0x26F SWAP3 SWAP2 SWAP1 PUSH2 0x27C JUMP JUMPDEST POP POP JUMP JUMPDEST PUSH1 0x0 DUP1 SLOAD SWAP1 POP SWAP1 JUMP JUMPDEST DUP3 DUP1 SLOAD PUSH2 0x288 SWAP1 PUSH2 0x744 JUMP JUMPDEST SWAP1 PUSH1 0x0 MSTORE PUSH1 0x20 PUSH1 0x0 KECCAK256 SWAP1 PUSH1 0x1F ADD PUSH1 0x20 SWAP1 DIV DUP2 ADD SWAP3 DUP3 PUSH2 0x2AA JUMPI PUSH1 0x0 DUP6 SSTORE PUSH2 0x2F1 JUMP JUMPDEST DUP3 PUSH1 0x1F LT PUSH2 0x2C3 JUMPI DUP1 MLOAD PUSH1 0xFF NOT AND DUP4 DUP1 ADD OR DUP6 SSTORE PUSH2 0x2F1 JUMP JUMPDEST DUP3 DUP1 ADD PUSH1 0x1 ADD DUP6 SSTORE DUP3 ISZERO PUSH2 0x2F1 JUMPI SWAP2 DUP3 ADD JUMPDEST DUP3 DUP2 GT ISZERO PUSH2 0x2F0 JUMPI DUP3 MLOAD DUP3 SSTORE SWAP2 PUSH1 0x20 ADD SWAP2 SWAP1 PUSH1 0x1 ADD SWAP1 PUSH2 0x2D5 JUMP JUMPDEST JUMPDEST POP SWAP1 POP PUSH2 0x2FE SWAP2 SWAP1 PUSH2 0x302 JUMP JUMPDEST POP SWAP1 JUMP JUMPDEST JUMPDEST DUP1 DUP3 GT ISZERO PUSH2 0x31B JUMPI PUSH1 0x0 DUP2 PUSH1 0x0 SWAP1 SSTORE POP PUSH1 0x1 ADD PUSH2 0x303 JUMP JUMPDEST POP SWAP1 JUMP JUMPDEST PUSH1 0x0 PUSH1 0x40 MLOAD SWAP1 POP SWAP1 JUMP JUMPDEST PUSH1 0x0 DUP1 REVERT JUMPDEST PUSH1 0x0 DUP1 REVERT JUMPDEST PUSH1 0x0 DUP2 ISZERO ISZERO SWAP1 POP SWAP2 SWAP1 POP JUMP JUMPDEST PUSH2 0x348 DUP2 PUSH2 0x333 JUMP JUMPDEST DUP2 EQ PUSH2 0x353 JUMPI PUSH1 0x0 DUP1 REVERT JUMPDEST POP JUMP JUMPDEST PUSH1 0x0 DUP2 CALLDATALOAD SWAP1 POP PUSH2 0x365 DUP2 PUSH2 0x33F JUMP JUMPDEST SWAP3 SWAP2 POP POP JUMP JUMPDEST PUSH1 0x0 PUSH1 0x20 DUP3 DUP5 SUB SLT ISZERO PUSH2 0x381 JUMPI PUSH2 0x380 PUSH2 0x329 JUMP JUMPDEST JUMPDEST PUSH1 0x0 PUSH2 0x38F DUP5 DUP3 DUP6 ADD PUSH2 0x356 JUMP JUMPDEST SWAP2 POP POP SWAP3 SWAP2 POP POP JUMP JUMPDEST PUSH1 0x0 DUP2 SWAP1 POP SWAP2 SWAP1 POP JUMP JUMPDEST PUSH2 0x3AB DUP2 PUSH2 0x398 JUMP JUMPDEST DUP2 EQ PUSH2 0x3B6 JUMPI PUSH1 0x0 DUP1 REVERT JUMPDEST POP JUMP JUMPDEST PUSH1 0x0 DUP2 CALLDATALOAD SWAP1 POP PUSH2 0x3C8 DUP2 PUSH2 0x3A2 JUMP JUMPDEST SWAP3 SWAP2 POP POP JUMP JUMPDEST PUSH1 0x0 PUSH1 0x20 DUP3 DUP5 SUB SLT ISZERO PUSH2 0x3E4 JUMPI PUSH2 0x3E3 PUSH2 0x329 JUMP JUMPDEST JUMPDEST PUSH1 0x0 PUSH2 0x3F2 DUP5 DUP3 DUP6 ADD PUSH2 0x3B9 JUMP JUMPDEST SWAP2 POP POP SWAP3 SWAP2 POP POP JUMP JUMPDEST PUSH1 0x0 DUP2 MLOAD SWAP1 POP SWAP2 SWAP1 POP JUMP JUMPDEST PUSH1 0x0 DUP3 DUP3 MSTORE PUSH1 0x20 DUP3 ADD SWAP1 POP SWAP3 SWAP2 POP POP JUMP JUMPDEST PUSH1 0x0 JUMPDEST DUP4 DUP2 LT ISZERO PUSH2 0x435 JUMPI DUP1 DUP3 ADD MLOAD DUP2 DUP5 ADD MSTORE PUSH1 0x20 DUP2 ADD SWAP1 POP PUSH2 0x41A JUMP JUMPDEST DUP4 DUP2 GT ISZERO PUSH2 0x444 JUMPI PUSH1 0x0 DUP5 DUP5 ADD MSTORE JUMPDEST POP POP POP POP JUMP JUMPDEST PUSH1 0x0 PUSH1 0x1F NOT PUSH1 0x1F DUP4 ADD AND SWAP1 POP SWAP2 SWAP1 POP JUMP JUMPDEST PUSH1 0x0 PUSH2 0x466 DUP3 PUSH2 0x3FB JUMP JUMPDEST PUSH2 0x470 DUP2 DUP6 PUSH2 0x406 JUMP JUMPDEST SWAP4 POP PUSH2 0x480 DUP2 DUP6 PUSH1 0x20 DUP7 ADD PUSH2 0x417 JUMP JUMPDEST PUSH2 0x489 DUP2 PUSH2 0x44A JUMP JUMPDEST DUP5 ADD SWAP2 POP POP SWAP3 SWAP2 POP POP JUMP JUMPDEST PUSH1 0x0 PUSH1 0x20 DUP3 ADD SWAP1 POP DUP2 DUP2 SUB PUSH1 0x0 DUP4 ADD MSTORE PUSH2 0x4AE DUP2 DUP5 PUSH2 0x45B JUMP JUMPDEST SWAP1 POP SWAP3 SWAP2 POP POP JUMP JUMPDEST PUSH1 0x0 DUP2 SWAP1 POP SWAP2 SWAP1 POP JUMP JUMPDEST PUSH2 0x4C9 DUP2 PUSH2 0x4B6 JUMP JUMPDEST DUP2 EQ PUSH2 0x4D4 JUMPI PUSH1 0x0 DUP1 REVERT JUMPDEST POP JUMP JUMPDEST PUSH1 0x0 DUP2 CALLDATALOAD SWAP1 POP PUSH2 0x4E6 DUP2 PUSH2 0x4C0 JUMP JUMPDEST SWAP3 SWAP2 POP POP JUMP JUMPDEST PUSH1 0x0 PUSH1 0x20 DUP3 DUP5 SUB SLT ISZERO PUSH2 0x502 JUMPI PUSH2 0x501 PUSH2 0x329 JUMP JUMPDEST JUMPDEST PUSH1 0x0 PUSH2 0x510 DUP5 DUP3 DUP6 ADD PUSH2 0x4D7 JUMP JUMPDEST SWAP2 POP POP SWAP3 SWAP2 POP POP JUMP JUMPDEST PUSH2 0x522 DUP2 PUSH2 0x398 JUMP JUMPDEST DUP3 MSTORE POP POP JUMP JUMPDEST PUSH1 0x0 PUSH1 0x20 DUP3 ADD SWAP1 POP PUSH2 0x53D PUSH1 0x0 DUP4 ADD DUP5 PUSH2 0x519 JUMP JUMPDEST SWAP3 SWAP2 POP POP JUMP JUMPDEST PUSH2 0x54C DUP2 PUSH2 0x333 JUMP JUMPDEST DUP3 MSTORE POP POP JUMP JUMPDEST PUSH1 0x0 PUSH1 0x20 DUP3 ADD SWAP1 POP PUSH2 0x567 PUSH1 0x0 DUP4 ADD DUP5 PUSH2 0x543 JUMP JUMPDEST SWAP3 SWAP2 POP POP JUMP JUMPDEST PUSH1 0x0 DUP1 REVERT JUMPDEST PUSH1 0x0 DUP1 REVERT JUMPDEST PUSH32 0x4E487B7100000000000000000000000000000000000000000000000000000000 PUSH1 0x0 MSTORE PUSH1 0x41 PUSH1 0x4 MSTORE PUSH1 0x24 PUSH1 0x0 REVERT JUMPDEST PUSH2 0x5AF DUP3 PUSH2 0x44A JUMP JUMPDEST DUP2 ADD DUP2 DUP2 LT PUSH8 0xFFFFFFFFFFFFFFFF DUP3 GT OR ISZERO PUSH2 0x5CE JUMPI PUSH2 0x5CD PUSH2 0x577 JUMP JUMPDEST JUMPDEST DUP1 PUSH1 0x40 MSTORE POP POP POP JUMP JUMPDEST PUSH1 0x0 PUSH2 0x5E1 PUSH2 0x31F JUMP JUMPDEST SWAP1 POP PUSH2 0x5ED DUP3 DUP3 PUSH2 0x5A6 JUMP JUMPDEST SWAP2 SWAP1 POP JUMP JUMPDEST PUSH1 0x0 PUSH8 0xFFFFFFFFFFFFFFFF DUP3 GT ISZERO PUSH2 0x60D JUMPI PUSH2 0x60C PUSH2 0x577 JUMP JUMPDEST JUMPDEST PUSH2 0x616 DUP3 PUSH2 0x44A JUMP JUMPDEST SWAP1 POP PUSH1 0x20 DUP2 ADD SWAP1 POP SWAP2 SWAP1 POP JUMP JUMPDEST DUP3 DUP2 DUP4 CALLDATACOPY PUSH1 0x0 DUP4 DUP4 ADD MSTORE POP POP POP JUMP JUMPDEST PUSH1 0x0 PUSH2 0x645 PUSH2 0x640 DUP5 PUSH2 0x5F2 JUMP JUMPDEST PUSH2 0x5D7 JUMP JUMPDEST SWAP1 POP DUP3 DUP2 MSTORE PUSH1 0x20 DUP2 ADD DUP5 DUP5 DUP5 ADD GT ISZERO PUSH2 0x661 JUMPI PUSH2 0x660 PUSH2 0x572 JUMP JUMPDEST JUMPDEST PUSH2 0x66C DUP5 DUP3 DUP6 PUSH2 0x623 JUMP JUMPDEST POP SWAP4 SWAP3 POP POP POP JUMP JUMPDEST PUSH1 0x0 DUP3 PUSH1 0x1F DUP4 ADD SLT PUSH2 0x689 JUMPI PUSH2 0x688 PUSH2 0x56D JUMP JUMPDEST JUMPDEST DUP2 CALLDATALOAD PUSH2 0x699 DUP5 DUP3 PUSH1 0x20 DUP7 ADD PUSH2 0x632 JUMP JUMPDEST SWAP2 POP POP SWAP3 SWAP2 POP POP JUMP JUMPDEST PUSH1 0x0 PUSH1 0x20 DUP3 DUP5 SUB SLT ISZERO PUSH2 0x6B8 JUMPI PUSH2 0x6B7 PUSH2 0x329 JUMP JUMPDEST JUMPDEST PUSH1 0x0 DUP3 ADD CALLDATALOAD PUSH8 0xFFFFFFFFFFFFFFFF DUP2 GT ISZERO PUSH2 0x6D6 JUMPI PUSH2 0x6D5 PUSH2 0x32E JUMP JUMPDEST JUMPDEST PUSH2 0x6E2 DUP5 DUP3 DUP6 ADD PUSH2 0x674 JUMP JUMPDEST SWAP2 POP POP SWAP3 SWAP2 POP POP JUMP JUMPDEST PUSH2 0x6F4 DUP2 PUSH2 0x4B6 JUMP JUMPDEST DUP3 MSTORE POP POP JUMP JUMPDEST PUSH1 0x0 PUSH1 0x20 DUP3 ADD SWAP1 POP PUSH2 0x70F PUSH1 0x0 DUP4 ADD DUP5 PUSH2 0x6EB JUMP JUMPDEST SWAP3 SWAP2 POP POP JUMP JUMPDEST PUSH32 0x4E487B7100000000000000000000000000000000000000000000000000000000 PUSH1 0x0 MSTORE PUSH1 0x22 PUSH1 0x4 MSTORE PUSH1 0x24 PUSH1 0x0 REVERT JUMPDEST PUSH1 0x0 PUSH1 0x2 DUP3 DIV SWAP1 POP PUSH1 0x1 DUP3 AND DUP1 PUSH2 0x75C JUMPI PUSH1 0x7F DUP3 AND SWAP2 POP JUMPDEST PUSH1 0x20 DUP3 LT DUP2 EQ ISZERO PUSH2 0x770 JUMPI PUSH2 0x76F PUSH2 0x715 JUMP JUMPDEST JUMPDEST POP SWAP2 SWAP1 POP JUMP INVALID LOG2 PUSH5 0x6970667358 0x22 SLT KECCAK256 0xE9 LOG3 0xB3 0xE2 SWAP12 RETURNDATASIZE PUSH31 0x6E49FC0B963B5FF6979A8A46941B74C98C2E94AC6416CAEC8F64736F6C6343 STOP ADDMOD MULMOD STOP CALLER "
				},
				"gasEstimates": {
					"creation": {
						"codeDepositCost": "392800",
						"executionCost": "430",
						"totalCost": "393230"
					},
					"external": {
						"getGoals()": "2437",
						"getMe()": "2501",
						"getName()": "infinite",
						"getNumber()": "2503",
						"setGoals(int256)": "22543",
						"setMe(bool)": "24680",
						"setName(string)": "infinite",
						"setScore(uint256)": "22587"
					}
				},
				"methodIdentifiers": {
					"getGoals()": "9e656d69",
					"getMe()": "c11e1ff3",
					"getName()": "17d7de7c",
					"getNumber()": "f2c9ecd8",
					"setGoals(int256)": "12c7777f",
					"setMe(bool)": "0d7378aa",
					"setName(string)": "c47f0027",
					"setScore(uint256)": "422beeba"
				}
			},
			"storageLayout": {
				"storage": [
					{
						"astId": 3,
						"contract": "contracts/Helloworld.sol:HelloWorld",
						"label": "score",
						"offset": 0,
						"slot": "0",
						"type": "t_uint256"
					},
					{
						"astId": 5,
						"contract": "contracts/Helloworld.sol:HelloWorld",
						"label": "me",
						"offset": 0,
						"slot": "1",
						"type": "t_bool"
					},
					{
						"astId": 7,
						"contract": "contracts/Helloworld.sol:HelloWorld",
						"label": "goals",
						"offset": 0,
						"slot": "2",
						"type": "t_int256"
					},
					{
						"astId": 9,
						"contract": "contracts/Helloworld.sol:HelloWorld",
						"label": "name",
						"offset": 0,
						"slot": "3",
						"type": "t_string_storage"
					}
				],
				"types": {
					"t_bool": {
						"encoding": "inplace",
						"label": "bool",
						"numberOfBytes": "1"
					},
					"t_int256": {
						"encoding": "inplace",
						"label": "int256",
						"numberOfBytes": "32"
					},
					"t_string_storage": {
						"encoding": "bytes",
						"label": "string",
						"numberOfBytes": "32"
					},
					"t_uint256": {
						"encoding": "inplace",
						"label": "uint256",
						"numberOfBytes": "32"
					}
				}
			},
			"userdoc": {
				"kind": "user",
				"methods": {},
				"version": 1
			}
		}
	}
}